:020000040000FA
:10000000600200104901000051010000530100008E
:1000100000000000000000000000000000000000E0
:10002000000000000000000000000000550100007A
:10003000000000000000000057010000590100000E
:100040005B0100005B0100005B0100005B01000040
:100050005B0100005B0100005B0100005B01000030
:100060005B0100005B0100005B0100005B01000020
:100070005B0100005B0100005B0100005B01000010
:100080005B0100005B0100005B0100005B01000000
:100090005B0100005B0100005B0100005B010000F0
:1000A0005B0100005B0100005B0100005B010000E0
:1000B0005B0100005B0100005B0100005B010000D0
:1000C00000F002F800F030F80CA030C8083824180E
:1000D0002D18A246671EAB4654465D46AC4201D180
:1000E00000F022F87E460F3E0FCCB6460126334282
:1000F00000D0FB1AA246AB4633431847A0010000CC
:10010000B00100000023002400250026103A01D38E
:1001100078C1FBD8520700D330C100D50B607047BF
:100120001FB51FBD10B510BD00F02BF81146FFF72D
:10013000F7FF00F09DF800F043F803B4FFF7F2FF7B
:1001400003BC00F049F80000074880470748004713
:10015000FEE7FEE7FEE7FEE7FEE7FEE704480549A7
:10016000034A054B7047000001030000C100000076
:1001700060000010600200106000001070477047BF
:100180007047754600F024F8AE46050069465346B0
:10019000C008C000854618B020B5FFF7DFFF60BC7F
:1001A00000274908B6460026C0C5C0C5C0C5C0C5A1
:1001B000C0C5C0C5C0C5C0C5403D49008D467047DB
:1001C00010B50446C046C0462046FFF7B6FF10BD36
:1001D000004870470000001001491820ABBEFEE740
:1001E0002600020070470000002009E0002101E025
:1001F0004A1C91B27D22D2009142F9DB421C90B29E
:10020000014A9042F2DB70478813000014480068EE
:10021000012109040843124908601248C069C00856
:10022000C0001049C8610846C069C8610C48006830
:100230000121090488430A490860084600684021F2
:100240000843074908600848006804210843064934
:1002500008600648C06B042108430449C86370471E
:10026000808004404040044000800250C03F025063
:10027000FFF7CCFF0FE00848C06B04218843064914
:10028000C863FFF7B1FF0448C06B0421084302496B
:10029000C863FFF7A9FFEEE7C03F0250A0030000CC
:1002A00000000010600200000401000000000000D7
:1002B000000000000000000000000000000000003E
:1002C000000000000000000000000000000000002E
:1002D000000000000000000000000000000000001E
:1002E000000000000000000000000000000000000E
:1002F000000000000000000000000000FFFFFFFF02
:1003000008B52548806B2021884323498863002055
:1003100022490862009003E000BF0098401C009052
:100320000098C828F8D301201C4940310860486073
:10033000002048600120486000BF184840304068F5
:10034000C007C00F0028F8D0232014498860124845
:10035000806B802188431049886300BF0F48C068C4
:10036000C007C00F0028F9D003200C4940310863B2
:1003700001204863002048630120486300BF07480C
:100380004030406BC007C00F0028F8D0012003495F
:100390004031886308BD00000082044000800440B2
:04000005000000C136
:00000001FF
